{
  "address": "0xb297d46dac4dB88877016cF70ada1539A6d647A0",
  "abi": [
    {
      "inputs": [],
      "stateMutability": "nonpayable",
      "type": "constructor"
    },
    {
      "anonymous": false,
      "inputs": [
        {
          "indexed": true,
          "internalType": "uint256",
          "name": "txIndex",
          "type": "uint256"
        },
        {
          "indexed": true,
          "internalType": "address",
          "name": "owner",
          "type": "address"
        }
      ],
      "name": "ApprovalRevoked",
      "type": "event"
    },
    {
      "anonymous": false,
      "inputs": [
        {
          "indexed": true,
          "internalType": "address",
          "name": "sender",
          "type": "address"
        },
        {
          "indexed": false,
          "internalType": "uint256",
          "name": "amount",
          "type": "uint256"
        }
      ],
      "name": "Deposit",
      "type": "event"
    },
    {
      "anonymous": false,
      "inputs": [
        {
          "indexed": true,
          "internalType": "address",
          "name": "owner",
          "type": "address"
        }
      ],
      "name": "OwnerAdded",
      "type": "event"
    },
    {
      "anonymous": false,
      "inputs": [
        {
          "indexed": true,
          "internalType": "address",
          "name": "owner",
          "type": "address"
        }
      ],
      "name": "OwnerRemoved",
      "type": "event"
    },
    {
      "anonymous": false,
      "inputs": [
        {
          "indexed": false,
          "internalType": "uint256",
          "name": "threshold",
          "type": "uint256"
        }
      ],
      "name": "ThresholdChanged",
      "type": "event"
    },
    {
      "anonymous": false,
      "inputs": [
        {
          "indexed": true,
          "internalType": "uint256",
          "name": "txIndex",
          "type": "uint256"
        },
        {
          "indexed": true,
          "internalType": "address",
          "name": "owner",
          "type": "address"
        }
      ],
      "name": "TransactionApproved",
      "type": "event"
    },
    {
      "anonymous": false,
      "inputs": [
        {
          "indexed": true,
          "internalType": "uint256",
          "name": "txIndex",
          "type": "uint256"
        },
        {
          "indexed": true,
          "internalType": "address",
          "name": "owner",
          "type": "address"
        }
      ],
      "name": "TransactionExecuted",
      "type": "event"
    },
    {
      "anonymous": false,
      "inputs": [
        {
          "indexed": true,
          "internalType": "uint256",
          "name": "txIndex",
          "type": "uint256"
        },
        {
          "indexed": true,
          "internalType": "address",
          "name": "owner",
          "type": "address"
        },
        {
          "indexed": true,
          "internalType": "address",
          "name": "to",
          "type": "address"
        },
        {
          "indexed": false,
          "internalType": "uint256",
          "name": "value",
          "type": "uint256"
        },
        {
          "indexed": false,
          "internalType": "bytes",
          "name": "data",
          "type": "bytes"
        }
      ],
      "name": "TransactionSubmitted",
      "type": "event"
    },
    {
      "inputs": [
        {
          "internalType": "address",
          "name": "newOwner",
          "type": "address"
        }
      ],
      "name": "addOwner",
      "outputs": [],
      "stateMutability": "nonpayable",
      "type": "function"
    },
    {
      "inputs": [
        {
          "internalType": "uint256",
          "name": "txIndex",
          "type": "uint256"
        }
      ],
      "name": "approveTransaction",
      "outputs": [],
      "stateMutability": "nonpayable",
      "type": "function"
    },
    {
      "inputs": [
        {
          "internalType": "uint256",
          "name": "",
          "type": "uint256"
        },
        {
          "internalType": "address",
          "name": "",
          "type": "address"
        }
      ],
      "name": "approved",
      "outputs": [
        {
          "internalType": "bool",
          "name": "",
          "type": "bool"
        }
      ],
      "stateMutability": "view",
      "type": "function"
    },
    {
      "inputs": [
        {
          "internalType": "uint256",
          "name": "newThreshold",
          "type": "uint256"
        }
      ],
      "name": "changeThreshold",
      "outputs": [],
      "stateMutability": "nonpayable",
      "type": "function"
    },
    {
      "inputs": [
        {
          "internalType": "uint256",
          "name": "txIndex",
          "type": "uint256"
        }
      ],
      "name": "executeTransaction",
      "outputs": [],
      "stateMutability": "nonpayable",
      "type": "function"
    },
    {
      "inputs": [],
      "name": "getOwners",
      "outputs": [
        {
          "internalType": "address[]",
          "name": "",
          "type": "address[]"
        }
      ],
      "stateMutability": "view",
      "type": "function"
    },
    {
      "inputs": [
        {
          "internalType": "uint256",
          "name": "txIndex",
          "type": "uint256"
        }
      ],
      "name": "getTransaction",
      "outputs": [
        {
          "components": [
            {
              "internalType": "address",
              "name": "to",
              "type": "address"
            },
            {
              "internalType": "uint256",
              "name": "value",
              "type": "uint256"
            },
            {
              "internalType": "bytes",
              "name": "data",
              "type": "bytes"
            },
            {
              "internalType": "bool",
              "name": "executed",
              "type": "bool"
            },
            {
              "internalType": "uint256",
              "name": "numConfirmations",
              "type": "uint256"
            }
          ],
          "internalType": "struct MultiSigWallet.Transaction",
          "name": "",
          "type": "tuple"
        }
      ],
      "stateMutability": "view",
      "type": "function"
    },
    {
      "inputs": [],
      "name": "getTransactionCount",
      "outputs": [
        {
          "internalType": "uint256",
          "name": "",
          "type": "uint256"
        }
      ],
      "stateMutability": "view",
      "type": "function"
    },
    {
      "inputs": [
        {
          "internalType": "address",
          "name": "",
          "type": "address"
        }
      ],
      "name": "isOwner",
      "outputs": [
        {
          "internalType": "bool",
          "name": "",
          "type": "bool"
        }
      ],
      "stateMutability": "view",
      "type": "function"
    },
    {
      "inputs": [
        {
          "internalType": "uint256",
          "name": "",
          "type": "uint256"
        }
      ],
      "name": "owners",
      "outputs": [
        {
          "internalType": "address",
          "name": "",
          "type": "address"
        }
      ],
      "stateMutability": "view",
      "type": "function"
    },
    {
      "inputs": [
        {
          "internalType": "address",
          "name": "owner",
          "type": "address"
        }
      ],
      "name": "removeOwner",
      "outputs": [],
      "stateMutability": "nonpayable",
      "type": "function"
    },
    {
      "inputs": [
        {
          "internalType": "uint256",
          "name": "txIndex",
          "type": "uint256"
        }
      ],
      "name": "revokeApproval",
      "outputs": [],
      "stateMutability": "nonpayable",
      "type": "function"
    },
    {
      "inputs": [
        {
          "internalType": "address",
          "name": "to",
          "type": "address"
        },
        {
          "internalType": "uint256",
          "name": "value",
          "type": "uint256"
        },
        {
          "internalType": "bytes",
          "name": "data",
          "type": "bytes"
        }
      ],
      "name": "submitTransaction",
      "outputs": [],
      "stateMutability": "nonpayable",
      "type": "function"
    },
    {
      "inputs": [],
      "name": "threshold",
      "outputs": [
        {
          "internalType": "uint256",
          "name": "",
          "type": "uint256"
        }
      ],
      "stateMutability": "view",
      "type": "function"
    },
    {
      "inputs": [
        {
          "internalType": "uint256",
          "name": "",
          "type": "uint256"
        }
      ],
      "name": "transactions",
      "outputs": [
        {
          "internalType": "address",
          "name": "to",
          "type": "address"
        },
        {
          "internalType": "uint256",
          "name": "value",
          "type": "uint256"
        },
        {
          "internalType": "bytes",
          "name": "data",
          "type": "bytes"
        },
        {
          "internalType": "bool",
          "name": "executed",
          "type": "bool"
        },
        {
          "internalType": "uint256",
          "name": "numConfirmations",
          "type": "uint256"
        }
      ],
      "stateMutability": "view",
      "type": "function"
    },
    {
      "stateMutability": "payable",
      "type": "receive"
    }
  ],
  "transactionHash": "0x6b504524aa9ce58846dedec6f1f9ed3440be1464b45918f408cd53691cdde725",
  "args": [],
  "numDeployments": 1,
  "solcInputHash": "bc2ed8803324a06aa7c488d4eb8acc98",
  "bytecode": "0x6080604052348015600f57600080fd5b5060008054600181810183557f290decd9548b62a8d60345a988386fc84ba6bc95484008f6362f93160ef3e56390910180546001600160a01b03191633908117909155825260026020526040909120805460ff19168217905580556118a1806100796000396000f3fe6080604052600436106100ec5760003560e01c8063694e80c31161008a578063a0e67e2b11610059578063a0e67e2b146102fa578063b1e130fc1461031c578063c64274741461033c578063ee22610b1461035c57600080fd5b8063694e80c31461024e5780637065cb481461026e5780638253951a1461028e5780639ace38c2146102c957600080fd5b80632e7700f0116100c65780632e7700f0146101ac5780632f54bf6e146101cb57806333ea3dc81461020b57806342cde4e81461023857600080fd5b8063025e7c271461012d578063173825d91461016a578063242232d11461018c57600080fd5b366101285760405134815233907fe1fffcc4923d04b559f4d29a8bfc6cda04eb5b0d3c460751c2402c5c5cc9109c9060200160405180910390a2005b600080fd5b34801561013957600080fd5b5061014d6101483660046112a6565b61037c565b6040516001600160a01b0390911681526020015b60405180910390f35b34801561017657600080fd5b5061018a6101853660046112db565b6103a6565b005b34801561019857600080fd5b5061018a6101a73660046112a6565b610601565b3480156101b857600080fd5b506004545b604051908152602001610161565b3480156101d757600080fd5b506101fb6101e63660046112db565b60026020526000908152604090205460ff1681565b6040519015158152602001610161565b34801561021757600080fd5b5061022b6102263660046112a6565b6107ac565b6040516101619190611343565b34801561024457600080fd5b506101bd60015481565b34801561025a57600080fd5b5061018a6102693660046112a6565b610926565b34801561027a57600080fd5b5061018a6102893660046112db565b610a42565b34801561029a57600080fd5b506101fb6102a936600461139d565b600360209081526000928352604080842090915290825290205460ff1681565b3480156102d557600080fd5b506102e96102e43660046112a6565b610bc8565b6040516101619594939291906113c9565b34801561030657600080fd5b5061030f610ca1565b6040516101619190611404565b34801561032857600080fd5b5061018a6103373660046112a6565b610d03565b34801561034857600080fd5b5061018a610357366004611450565b610ea7565b34801561036857600080fd5b5061018a6103773660046112a6565b611079565b6000818154811061038c57600080fd5b6000918252602090912001546001600160a01b0316905081565b3330146103ce5760405162461bcd60e51b81526004016103c5906114da565b60405180910390fd5b6001600160a01b03811660009081526002602052604090205460ff166104425760405162461bcd60e51b8152602060048201526024808201527f4d756c746953696757616c6c65743a206f776e657220646f6573206e6f7420656044820152631e1a5cdd60e21b60648201526084016103c5565b60018054600054909161045491611534565b10156104b65760405162461bcd60e51b815260206004820152602b60248201527f4d756c746953696757616c6c65743a206f776e657220636f756e742062656c6f60448201526a1dc81d1a1c995cda1bdb1960aa1b60648201526084016103c5565b6001600160a01b0381166000908152600260205260408120805460ff191690555b6000548110156105c957816001600160a01b0316600082815481106104fe576104fe61154d565b6000918252602090912001546001600160a01b0316036105c1576000805461052890600190611534565b815481106105385761053861154d565b600091825260208220015481546001600160a01b039091169190839081106105625761056261154d565b6000918252602082200180546001600160a01b0319166001600160a01b03939093169290921790915580548061059a5761059a611563565b600082815260209020810160001990810180546001600160a01b03191690550190556105c9565b6001016104d7565b506040516001600160a01b038216907f58619076adf5bb0943d100ef88d52d7c3fd691b19d3a9071b555b651fbf418da90600090a250565b3360009081526002602052604090205460ff166106305760405162461bcd60e51b81526004016103c590611579565b600454819081106106535760405162461bcd60e51b81526004016103c5906115bf565b81600481815481106106675761066761154d565b600091825260209091206003600590920201015460ff161561069b5760405162461bcd60e51b81526004016103c590611609565b600083815260036020908152604080832033845290915290205460ff161561071a5760405162461bcd60e51b815260206004820152602c60248201527f4d756c746953696757616c6c65743a207472616e73616374696f6e20616c726560448201526b18591e48185c1c1c9bdd995960a21b60648201526084016103c5565b60008381526003602090815260408083203384529091529020805460ff1916600190811790915560048054859081106107555761075561154d565b906000526020600020906005020160040160008282546107759190611655565b9091555050604051339084907f924813d717e221b5f46dcd8a56da1679e4612584ab3237d55e5faabf6f6a307990600090a3505050565b6107e96040518060a0016040528060006001600160a01b031681526020016000815260200160608152602001600015158152602001600081525090565b6004548290811061080c5760405162461bcd60e51b81526004016103c5906115bf565b6004838154811061081f5761081f61154d565b90600052602060002090600502016040518060a00160405290816000820160009054906101000a90046001600160a01b03166001600160a01b03166001600160a01b031681526020016001820154815260200160028201805461088190611668565b80601f01602080910402602001604051908101604052809291908181526020018280546108ad90611668565b80156108fa5780601f106108cf576101008083540402835291602001916108fa565b820191906000526020600020905b8154815290600101906020018083116108dd57829003601f168201915b5050509183525050600382015460ff161515602082015260049091015460409091015291505b50919050565b3330146109455760405162461bcd60e51b81526004016103c5906114da565b6000811161099f5760405162461bcd60e51b815260206004820152602160248201527f4d756c746953696757616c6c65743a207468726573686f6c64206973207a65726044820152606f60f81b60648201526084016103c5565b600054811115610a075760405162461bcd60e51b815260206004820152602d60248201527f4d756c746953696757616c6c65743a207468726573686f6c642065786365656460448201526c1cc81bdddb995c8818dbdd5b9d609a1b60648201526084016103c5565b60018190556040518181527f6c4ce60fd690e1216286a10b875c5662555f10774484e58142cedd7a90781baa9060200160405180910390a150565b333014610a615760405162461bcd60e51b81526004016103c5906114da565b6001600160a01b038116610ac55760405162461bcd60e51b815260206004820152602560248201527f4d756c746953696757616c6c65743a206f776e6572206973207a65726f206164604482015264647265737360d81b60648201526084016103c5565b6001600160a01b03811660009081526002602052604090205460ff1615610b3a5760405162461bcd60e51b8152602060048201526024808201527f4d756c746953696757616c6c65743a206f776e657220616c72656164792065786044820152636973747360e01b60648201526084016103c5565b60008054600180820183557f290decd9548b62a8d60345a988386fc84ba6bc95484008f6362f93160ef3e56390910180546001600160a01b0319166001600160a01b03851690811790915580835260026020526040808420805460ff1916909317909255905190917f994a936646fe87ffe4f1e469d3d6aa417d6b855598397f323de5b449f765f0c391a250565b60048181548110610bd857600080fd5b60009182526020909120600590910201805460018201546002830180546001600160a01b039093169450909291610c0e90611668565b80601f0160208091040260200160405190810160405280929190818152602001828054610c3a90611668565b8015610c875780601f10610c5c57610100808354040283529160200191610c87565b820191906000526020600020905b815481529060010190602001808311610c6a57829003601f168201915b505050506003830154600490930154919260ff1691905085565b60606000805480602002602001604051908101604052809291908181526020018280548015610cf957602002820191906000526020600020905b81546001600160a01b03168152600190910190602001808311610cdb575b5050505050905090565b3360009081526002602052604090205460ff16610d325760405162461bcd60e51b81526004016103c590611579565b60045481908110610d555760405162461bcd60e51b81526004016103c5906115bf565b8160048181548110610d6957610d6961154d565b600091825260209091206003600590920201015460ff1615610d9d5760405162461bcd60e51b81526004016103c590611609565b600083815260036020908152604080832033845290915290205460ff16610e175760405162461bcd60e51b815260206004820152602860248201527f4d756c746953696757616c6c65743a207472616e73616374696f6e206e6f7420604482015267185c1c1c9bdd995960c21b60648201526084016103c5565b60008381526003602090815260408083203384529091529020805460ff19169055600480546001919085908110610e5057610e5061154d565b90600052602060002090600502016004016000828254610e709190611534565b9091555050604051339084907f430c786ad6c97d1739e88415e23257a88a0a989b6bdc4e9e415b72bb53d869a890600090a3505050565b3360009081526002602052604090205460ff16610ed65760405162461bcd60e51b81526004016103c590611579565b6001600160a01b038416610f3b5760405162461bcd60e51b815260206004820152602660248201527f4d756c746953696757616c6c65743a20746172676574206973207a65726f206160448201526564647265737360d01b60648201526084016103c5565b60046040518060a00160405280866001600160a01b0316815260200185815260200184848080601f01602080910402602001604051908101604052809392919081815260200183838082843760009201829052509385525050506020808301829052604092830182905284546001808201875595835291819020845160059093020180546001600160a01b0319166001600160a01b03909316929092178255830151938101939093558101519091906002820190610ff99082611701565b50606082015160038201805460ff1916911515919091179055608090910151600491820155546001600160a01b03851690339061103890600190611534565b7f2ecf8c4571be1f8a0b1e6feaa711128f3f8038e97869aa59d0f595e21f50eaa086868660405161106b939291906117c0565b60405180910390a450505050565b3360009081526002602052604090205460ff166110a85760405162461bcd60e51b81526004016103c590611579565b600454819081106110cb5760405162461bcd60e51b81526004016103c5906115bf565b81600481815481106110df576110df61154d565b600091825260209091206003600590920201015460ff16156111135760405162461bcd60e51b81526004016103c590611609565b6000600484815481106111285761112861154d565b906000526020600020906005020190506001548160040154101561119d5760405162461bcd60e51b815260206004820152602660248201527f4d756c746953696757616c6c65743a20696e73756666696369656e7420617070604482015265726f76616c7360d01b60648201526084016103c5565b60038101805460ff191660019081179091558154908201546040516000926001600160a01b031691906111d49060028601906117f6565b60006040518083038185875af1925050503d8060008114611211576040519150601f19603f3d011682016040523d82523d6000602084013e611216565b606091505b50509050806112725760405162461bcd60e51b815260206004820152602260248201527f4d756c746953696757616c6c65743a207472616e73616374696f6e206661696c604482015261195960f21b60648201526084016103c5565b604051339086907fefc13bdcf58f184ea7cae26b499fb33b539e01d0197cea456f3ada289b8cf19b90600090a35050505050565b6000602082840312156112b857600080fd5b5035919050565b80356001600160a01b03811681146112d657600080fd5b919050565b6000602082840312156112ed57600080fd5b6112f6826112bf565b9392505050565b6000815180845260005b8181101561132357602081850181015186830182015201611307565b506000602082860101526020601f19601f83011685010191505092915050565b6020815260018060a01b038251166020820152602082015160408201526000604083015160a0606084015261137b60c08401826112fd565b9050606084015115156080840152608084015160a08401528091505092915050565b600080604083850312156113b057600080fd5b823591506113c0602084016112bf565b90509250929050565b60018060a01b038616815284602082015260a0604082015260006113f060a08301866112fd565b931515606083015250608001529392505050565b602080825282518282018190526000918401906040840190835b818110156114455783516001600160a01b031683526020938401939092019160010161141e565b509095945050505050565b6000806000806060858703121561146657600080fd5b61146f856112bf565b935060208501359250604085013567ffffffffffffffff81111561149257600080fd5b8501601f810187136114a357600080fd5b803567ffffffffffffffff8111156114ba57600080fd5b8760208284010111156114cc57600080fd5b949793965060200194505050565b60208082526024908201527f4d756c746953696757616c6c65743a2063616c6c6572206973206e6f742077616040820152631b1b195d60e21b606082015260800190565b634e487b7160e01b600052601160045260246000fd5b818103818111156115475761154761151e565b92915050565b634e487b7160e01b600052603260045260246000fd5b634e487b7160e01b600052603160045260246000fd5b60208082526026908201527f4d756c746953696757616c6c65743a2063616c6c6572206973206e6f7420616e6040820152651037bbb732b960d11b606082015260800190565b6020808252602a908201527f4d756c746953696757616c6c65743a207472616e73616374696f6e20646f6573604082015269081b9bdd08195e1a5cdd60b21b606082015260800190565b6020808252602c908201527f4d756c746953696757616c6c65743a207472616e73616374696f6e20616c726560408201526b18591e48195e1958dd5d195960a21b606082015260800190565b808201808211156115475761154761151e565b600181811c9082168061167c57607f821691505b60208210810361092057634e487b7160e01b600052602260045260246000fd5b634e487b7160e01b600052604160045260246000fd5b601f8211156116fc57806000526020600020601f840160051c810160208510156116d95750805b601f840160051c820191505b818110156116f957600081556001016116e5565b50505b505050565b815167ffffffffffffffff81111561171b5761171b61169c565b61172f816117298454611668565b846116b2565b6020601f821160018114611763576000831561174b5750848201515b600019600385901b1c1916600184901b1784556116f9565b600084815260208120601f198516915b828110156117935787850151825560209485019460019092019101611773565b50848210156117b15786840151600019600387901b60f8161c191681555b50505050600190811b01905550565b83815260406020820152816040820152818360608301376000818301606090810191909152601f909201601f1916010192915050565b600080835461180481611668565b60018216801561181b576001811461183057611860565b60ff1983168652811515820286019350611860565b86600052602060002060005b838110156118585781548882015260019091019060200161183c565b505081860193505b50919594505050505056fea26469706673582212200dccfa7861a2bb2dfcb91cc893525c6efcdae8f8168bfb77447525769ecf272464736f6c634300081e0033",
  "devdoc": {
    "kind": "dev",
    "methods": {},
    "version": 1
  },
  "userdoc": {
    "kind": "user",
    "methods": {},
    "version": 1
  },
  "storageLayout": {
    "storage": [
      {
        "astId": 15,
        "contract": "contracts/MultiSigWallet.sol:MultiSigWallet",
        "label": "owners",
        "offset": 0,
        "slot": "0",
        "type": "t_array(t_address)dyn_storage"
      },
      {
        "astId": 17,
        "contract": "contracts/MultiSigWallet.sol:MultiSigWallet",
        "label": "threshold",
        "offset": 0,
        "slot": "1",
        "type": "t_uint256"
      },
      {
        "astId": 21,
        "contract": "contracts/MultiSigWallet.sol:MultiSigWallet",
        "label": "isOwner",
        "offset": 0,
        "slot": "2",
        "type": "t_mapping(t_address,t_bool)"
      },
      {
        "astId": 27,
        "contract": "contracts/MultiSigWallet.sol:MultiSigWallet",
        "label": "approved",
        "offset": 0,
        "slot": "3",
        "type": "t_mapping(t_uint256,t_mapping(t_address,t_bool))"
      },
      {
        "astId": 31,
        "contract": "contracts/MultiSigWallet.sol:MultiSigWallet",
        "label": "transactions",
        "offset": 0,
        "slot": "4",
        "type": "t_array(t_struct(Transaction)12_storage)dyn_storage"
      }
    ],
    "types": {
      "t_address": {
        "encoding": "inplace",
        "label": "address",
        "numberOfBytes": "20"
      },
      "t_array(t_address)dyn_storage": {
        "base": "t_address",
        "encoding": "dynamic_array",
        "label": "address[]",
        "numberOfBytes": "32"
      },
      "t_array(t_struct(Transaction)12_storage)dyn_storage": {
        "base": "t_struct(Transaction)12_storage",
        "encoding": "dynamic_array",
        "label": "struct MultiSigWallet.Transaction[]",
        "numberOfBytes": "32"
      },
      "t_bool": {
        "encoding": "inplace",
        "label": "bool",
        "numberOfBytes": "1"
      },
      "t_bytes_storage": {
        "encoding": "bytes",
        "label": "bytes",
        "numberOfBytes": "32"
      },
      "t_mapping(t_address,t_bool)": {
        "encoding": "mapping",
        "key": "t_address",
        "label": "mapping(address => bool)",
        "numberOfBytes": "32",
        "value": "t_bool"
      },
      "t_mapping(t_uint256,t_mapping(t_address,t_bool))": {
        "encoding": "mapping",
        "key": "t_uint256",
        "label": "mapping(uint256 => mapping(address => bool))",
        "numberOfBytes": "32",
        "value": "t_mapping(t_address,t_bool)"
      },
      "t_struct(Transaction)12_storage": {
        "encoding": "inplace",
        "label": "struct MultiSigWallet.Transaction",
        "members": [
          {
            "astId": 3,
            "contract": "contracts/MultiSigWallet.sol:MultiSigWallet",
            "label": "to",
            "offset": 0,
            "slot": "0",
            "type": "t_address"
          },
          {
            "astId": 5,
            "contract": "contracts/MultiSigWallet.sol:MultiSigWallet",
            "label": "value",
            "offset": 0,
            "slot": "1",
            "type": "t_uint256"
          },
          {
            "astId": 7,
            "contract": "contracts/MultiSigWallet.sol:MultiSigWallet",
            "label": "data",
            "offset": 0,
            "slot": "2",
            "type": "t_bytes_storage"
          },
          {
            "astId": 9,
            "contract": "contracts/MultiSigWallet.sol:MultiSigWallet",
            "label": "executed",
            "offset": 0,
            "slot": "3",
            "type": "t_bool"
          },
          {
            "astId": 11,
            "contract": "contracts/MultiSigWallet.sol:MultiSigWallet",
            "label": "numConfirmations",
            "offset": 0,
            "slot": "4",
            "type": "t_uint256"
          }
        ],
        "numberOfBytes": "160"
      },
      "t_uint256": {
        "encoding": "inplace",
        "label": "uint256",
        "numberOfBytes": "32"
      }
    }
  }
}